{
  "_format": "hh-sol-artifact-1",
  "contractName": "AvaxGeisha",
  "sourceName": "contracts/AvaxGeisha.sol",
  "abi": [
    {
      "inputs": [],
      "stateMutability": "nonpayable",
      "type": "constructor"
    },
    {
      "anonymous": false,
      "inputs": [
        {
          "indexed": true,
          "internalType": "address",
          "name": "owner",
          "type": "address"
        },
        {
          "indexed": true,
          "internalType": "address",
          "name": "approved",
          "type": "address"
        },
        {
          "indexed": true,
          "internalType": "uint256",
          "name": "tokenId",
          "type": "uint256"
        }
      ],
      "name": "Approval",
      "type": "event"
    },
    {
      "anonymous": false,
      "inputs": [
        {
          "indexed": true,
          "internalType": "address",
          "name": "owner",
          "type": "address"
        },
        {
          "indexed": true,
          "internalType": "address",
          "name": "operator",
          "type": "address"
        },
        {
          "indexed": false,
          "internalType": "bool",
          "name": "approved",
          "type": "bool"
        }
      ],
      "name": "ApprovalForAll",
      "type": "event"
    },
    {
      "anonymous": false,
      "inputs": [
        {
          "indexed": true,
          "internalType": "address",
          "name": "previousOwner",
          "type": "address"
        },
        {
          "indexed": true,
          "internalType": "address",
          "name": "newOwner",
          "type": "address"
        }
      ],
      "name": "OwnershipTransferred",
      "type": "event"
    },
    {
      "anonymous": false,
      "inputs": [
        {
          "indexed": true,
          "internalType": "address",
          "name": "from",
          "type": "address"
        },
        {
          "indexed": true,
          "internalType": "address",
          "name": "to",
          "type": "address"
        },
        {
          "indexed": true,
          "internalType": "uint256",
          "name": "tokenId",
          "type": "uint256"
        }
      ],
      "name": "Transfer",
      "type": "event"
    },
    {
      "inputs": [],
      "name": "MAX_ELEMENTS",
      "outputs": [
        {
          "internalType": "uint256",
          "name": "",
          "type": "uint256"
        }
      ],
      "stateMutability": "view",
      "type": "function"
    },
    {
      "inputs": [],
      "name": "MAX_MINTABLE",
      "outputs": [
        {
          "internalType": "uint256",
          "name": "",
          "type": "uint256"
        }
      ],
      "stateMutability": "view",
      "type": "function"
    },
    {
      "inputs": [
        {
          "internalType": "address",
          "name": "to",
          "type": "address"
        },
        {
          "internalType": "uint256",
          "name": "tokenId",
          "type": "uint256"
        }
      ],
      "name": "approve",
      "outputs": [],
      "stateMutability": "nonpayable",
      "type": "function"
    },
    {
      "inputs": [
        {
          "internalType": "address",
          "name": "owner",
          "type": "address"
        }
      ],
      "name": "balanceOf",
      "outputs": [
        {
          "internalType": "uint256",
          "name": "",
          "type": "uint256"
        }
      ],
      "stateMutability": "view",
      "type": "function"
    },
    {
      "inputs": [],
      "name": "baseURI",
      "outputs": [
        {
          "internalType": "string",
          "name": "",
          "type": "string"
        }
      ],
      "stateMutability": "view",
      "type": "function"
    },
    {
      "inputs": [],
      "name": "claimUserReward",
      "outputs": [],
      "stateMutability": "nonpayable",
      "type": "function"
    },
    {
      "inputs": [
        {
          "internalType": "uint256",
          "name": "tokenId",
          "type": "uint256"
        }
      ],
      "name": "getApproved",
      "outputs": [
        {
          "internalType": "address",
          "name": "",
          "type": "address"
        }
      ],
      "stateMutability": "view",
      "type": "function"
    },
    {
      "inputs": [],
      "name": "getTokenPrimaryPrice",
      "outputs": [
        {
          "internalType": "uint256",
          "name": "",
          "type": "uint256"
        }
      ],
      "stateMutability": "view",
      "type": "function"
    },
    {
      "inputs": [
        {
          "internalType": "address",
          "name": "user_",
          "type": "address"
        }
      ],
      "name": "getUserCollections",
      "outputs": [
        {
          "internalType": "uint256[]",
          "name": "",
          "type": "uint256[]"
        }
      ],
      "stateMutability": "view",
      "type": "function"
    },
    {
      "inputs": [
        {
          "internalType": "address",
          "name": "owner",
          "type": "address"
        },
        {
          "internalType": "address",
          "name": "operator",
          "type": "address"
        }
      ],
      "name": "isApprovedForAll",
      "outputs": [
        {
          "internalType": "bool",
          "name": "",
          "type": "bool"
        }
      ],
      "stateMutability": "view",
      "type": "function"
    },
    {
      "inputs": [
        {
          "internalType": "uint256",
          "name": "mintAmount_",
          "type": "uint256"
        }
      ],
      "name": "mint",
      "outputs": [],
      "stateMutability": "payable",
      "type": "function"
    },
    {
      "inputs": [
        {
          "internalType": "uint256",
          "name": "mintAmount_",
          "type": "uint256"
        }
      ],
      "name": "mintFree",
      "outputs": [],
      "stateMutability": "nonpayable",
      "type": "function"
    },
    {
      "inputs": [],
      "name": "mintedTotalCost",
      "outputs": [
        {
          "internalType": "uint256",
          "name": "",
          "type": "uint256"
        }
      ],
      "stateMutability": "view",
      "type": "function"
    },
    {
      "inputs": [],
      "name": "name",
      "outputs": [
        {
          "internalType": "string",
          "name": "",
          "type": "string"
        }
      ],
      "stateMutability": "view",
      "type": "function"
    },
    {
      "inputs": [],
      "name": "nftCounter",
      "outputs": [
        {
          "internalType": "uint256",
          "name": "",
          "type": "uint256"
        }
      ],
      "stateMutability": "view",
      "type": "function"
    },
    {
      "inputs": [],
      "name": "owner",
      "outputs": [
        {
          "internalType": "address",
          "name": "",
          "type": "address"
        }
      ],
      "stateMutability": "view",
      "type": "function"
    },
    {
      "inputs": [
        {
          "internalType": "uint256",
          "name": "tokenId",
          "type": "uint256"
        }
      ],
      "name": "ownerOf",
      "outputs": [
        {
          "internalType": "address",
          "name": "",
          "type": "address"
        }
      ],
      "stateMutability": "view",
      "type": "function"
    },
    {
      "inputs": [],
      "name": "reflection",
      "outputs": [
        {
          "internalType": "uint256",
          "name": "",
          "type": "uint256"
        }
      ],
      "stateMutability": "view",
      "type": "function"
    },
    {
      "inputs": [],
      "name": "renounceOwnership",
      "outputs": [],
      "stateMutability": "nonpayable",
      "type": "function"
    },
    {
      "inputs": [
        {
          "internalType": "address",
          "name": "from",
          "type": "address"
        },
        {
          "internalType": "address",
          "name": "to",
          "type": "address"
        },
        {
          "internalType": "uint256",
          "name": "tokenId",
          "type": "uint256"
        }
      ],
      "name": "safeTransferFrom",
      "outputs": [],
      "stateMutability": "nonpayable",
      "type": "function"
    },
    {
      "inputs": [
        {
          "internalType": "address",
          "name": "from",
          "type": "address"
        },
        {
          "internalType": "address",
          "name": "to",
          "type": "address"
        },
        {
          "internalType": "uint256",
          "name": "tokenId",
          "type": "uint256"
        },
        {
          "internalType": "bytes",
          "name": "_data",
          "type": "bytes"
        }
      ],
      "name": "safeTransferFrom",
      "outputs": [],
      "stateMutability": "nonpayable",
      "type": "function"
    },
    {
      "inputs": [
        {
          "internalType": "address",
          "name": "operator",
          "type": "address"
        },
        {
          "internalType": "bool",
          "name": "approved",
          "type": "bool"
        }
      ],
      "name": "setApprovalForAll",
      "outputs": [],
      "stateMutability": "nonpayable",
      "type": "function"
    },
    {
      "inputs": [
        {
          "internalType": "string",
          "name": "baseURI_",
          "type": "string"
        }
      ],
      "name": "setBaseURI",
      "outputs": [],
      "stateMutability": "nonpayable",
      "type": "function"
    },
    {
      "inputs": [
        {
          "internalType": "uint256",
          "name": "_reflection",
          "type": "uint256"
        }
      ],
      "name": "setReflection",
      "outputs": [],
      "stateMutability": "nonpayable",
      "type": "function"
    },
    {
      "inputs": [
        {
          "internalType": "uint256",
          "name": "startMintTime_",
          "type": "uint256"
        }
      ],
      "name": "setStartMintTime",
      "outputs": [],
      "stateMutability": "nonpayable",
      "type": "function"
    },
    {
      "inputs": [
        {
          "internalType": "uint256",
          "name": "tokenPrimaryPrice_",
          "type": "uint256"
        }
      ],
      "name": "setTokenPrimaryPrice",
      "outputs": [],
      "stateMutability": "nonpayable",
      "type": "function"
    },
    {
      "inputs": [],
      "name": "startMintTime",
      "outputs": [
        {
          "internalType": "uint256",
          "name": "",
          "type": "uint256"
        }
      ],
      "stateMutability": "view",
      "type": "function"
    },
    {
      "inputs": [
        {
          "internalType": "bytes4",
          "name": "interfaceId",
          "type": "bytes4"
        }
      ],
      "name": "supportsInterface",
      "outputs": [
        {
          "internalType": "bool",
          "name": "",
          "type": "bool"
        }
      ],
      "stateMutability": "view",
      "type": "function"
    },
    {
      "inputs": [],
      "name": "symbol",
      "outputs": [
        {
          "internalType": "string",
          "name": "",
          "type": "string"
        }
      ],
      "stateMutability": "view",
      "type": "function"
    },
    {
      "inputs": [],
      "name": "tokenPrimaryPrice",
      "outputs": [
        {
          "internalType": "uint256",
          "name": "",
          "type": "uint256"
        }
      ],
      "stateMutability": "view",
      "type": "function"
    },
    {
      "inputs": [
        {
          "internalType": "uint256",
          "name": "tokenId_",
          "type": "uint256"
        }
      ],
      "name": "tokenURI",
      "outputs": [
        {
          "internalType": "string",
          "name": "",
          "type": "string"
        }
      ],
      "stateMutability": "view",
      "type": "function"
    },
    {
      "inputs": [],
      "name": "totalSupply",
      "outputs": [
        {
          "internalType": "uint256",
          "name": "",
          "type": "uint256"
        }
      ],
      "stateMutability": "view",
      "type": "function"
    },
    {
      "inputs": [
        {
          "internalType": "address",
          "name": "from",
          "type": "address"
        },
        {
          "internalType": "address",
          "name": "to",
          "type": "address"
        },
        {
          "internalType": "uint256",
          "name": "tokenId",
          "type": "uint256"
        }
      ],
      "name": "transferFrom",
      "outputs": [],
      "stateMutability": "nonpayable",
      "type": "function"
    },
    {
      "inputs": [
        {
          "internalType": "address",
          "name": "newOwner",
          "type": "address"
        }
      ],
      "name": "transferOwnership",
      "outputs": [],
      "stateMutability": "nonpayable",
      "type": "function"
    },
    {
      "inputs": [
        {
          "internalType": "address",
          "name": "",
          "type": "address"
        },
        {
          "internalType": "uint256",
          "name": "",
          "type": "uint256"
        }
      ],
      "name": "userCollections",
      "outputs": [
        {
          "internalType": "uint256",
          "name": "",
          "type": "uint256"
        }
      ],
      "stateMutability": "view",
      "type": "function"
    },
    {
      "inputs": [
        {
          "internalType": "address",
          "name": "user_",
          "type": "address"
        }
      ],
      "name": "viewUserReward",
      "outputs": [
        {
          "internalType": "uint256",
          "name": "",
          "type": "uint256"
        }
      ],
      "stateMutability": "view",
      "type": "function"
    },
    {
      "inputs": [],
      "name": "withdrawFunds",
      "outputs": [],
      "stateMutability": "nonpayable",
      "type": "function"
    },
    {
      "inputs": [
        {
          "internalType": "address payable",
          "name": "destination_",
          "type": "address"
        },
        {
          "internalType": "uint256",
          "name": "withdrawAmount_",
          "type": "uint256"
        }
      ],
      "name": "withdrawStuckMoney",
      "outputs": [],
      "stateMutability": "nonpayable",
      "type": "function"
    }
  ],
  "bytecode": "0x6080604052620186a0600b55612710600c55636214f19e600d553480156200002657600080fd5b50604080518082018252600b81526a417661782047656973686160a81b60208083019182528351808501909452600684526547454953484160d01b908401528151919291620000789160009162000113565b5080516200008e90600190602084019062000113565b505050620000ab620000a5620000bd60201b60201c565b620000c1565b671158e460913d0000600855620001f6565b3390565b600680546001600160a01b038381166001600160a01b0319831681179093556040519116919082907f8be0079c531659141344cd1fd0a4f28419497f9722a3daafe3b4186f6b6457e090600090a35050565b8280546200012190620001b9565b90600052602060002090601f01602090048101928262000145576000855562000190565b82601f106200016057805160ff191683800117855562000190565b8280016001018555821562000190579182015b828111156200019057825182559160200191906001019062000173565b506200019e929150620001a2565b5090565b5b808211156200019e5760008155600101620001a3565b600181811c90821680620001ce57607f821691505b60208210811415620001f057634e487b7160e01b600052602260045260246000fd5b50919050565b61269080620002066000396000f3fe6080604052600436106102255760003560e01c80636352211e11610123578063a22cb465116100ab578063df6c75f81161006f578063df6c75f814610603578063e574609e14610619578063e985e9c51461062f578063f2fde38b14610678578063fdcb891e1461069857600080fd5b8063a22cb4651461056e578063a41467331461058e578063b88d4fde146105ae578063c87b56dd146105ce578063d8ad6840146105ee57600080fd5b80638500a45d116100f25780638500a45d146104e55780638da5cb5b146104fb57806395d89b41146105195780639aa5ad8c1461052e578063a0712d681461055b57600080fd5b80636352211e1461047b5780636c0360eb1461049b57806370a08231146104b0578063715018a6146104d057600080fd5b80632e6d57bf116101b1578063428a617111610175578063428a6171146103db5780634f597414146103fb57806350a4b72e1461041b57806355f804b31461043b57806356f394921461045b57600080fd5b80632e6d57bf1461035a578063324d44751461037a5780633502a716146103905780633f879faf146103a657806342842e0e146103bb57600080fd5b8063095ea7b3116101f8578063095ea7b3146102d857806318160ddd146102fa57806323b872dd1461030f57806324600fc31461032f578063268f8f771461034457600080fd5b806301ffc9a71461022a57806306fdde031461025f578063081812fc14610281578063088efc52146102b9575b600080fd5b34801561023657600080fd5b5061024a610245366004612256565b6106b8565b60405190151581526020015b60405180910390f35b34801561026b57600080fd5b5061027461070a565b60405161025691906123de565b34801561028d57600080fd5b506102a161029c3660046122d9565b61079c565b6040516001600160a01b039091168152602001610256565b3480156102c557600080fd5b506008545b604051908152602001610256565b3480156102e457600080fd5b506102f86102f33660046120fd565b610829565b005b34801561030657600080fd5b506007546102ca565b34801561031b57600080fd5b506102f861032a366004612162565b61093f565b34801561033b57600080fd5b506102f8610970565b34801561035057600080fd5b506102ca600b5481565b34801561036657600080fd5b506102ca6103753660046120e0565b610a16565b34801561038657600080fd5b506102ca60085481565b34801561039c57600080fd5b506102ca61271081565b3480156103b257600080fd5b506102ca601481565b3480156103c757600080fd5b506102f86103d6366004612162565b610ada565b3480156103e757600080fd5b506102ca6103f63660046120fd565b610af5565b34801561040757600080fd5b506102f86104163660046122d9565b610b26565b34801561042757600080fd5b506102f86104363660046122d9565b610b55565b34801561044757600080fd5b506102f8610456366004612290565b610b84565b34801561046757600080fd5b506102f86104763660046120fd565b610bc5565b34801561048757600080fd5b506102a16104963660046122d9565b610ca8565b3480156104a757600080fd5b50610274610d1f565b3480156104bc57600080fd5b506102ca6104cb3660046120e0565b610dad565b3480156104dc57600080fd5b506102f8610e34565b3480156104f157600080fd5b506102ca600d5481565b34801561050757600080fd5b506006546001600160a01b03166102a1565b34801561052557600080fd5b50610274610e6a565b34801561053a57600080fd5b5061054e6105493660046120e0565b610e79565b604051610256919061239a565b6102f86105693660046122d9565b610ee5565b34801561057a57600080fd5b506102f8610589366004612223565b61113e565b34801561059a57600080fd5b506102f86105a93660046122d9565b611149565b3480156105ba57600080fd5b506102f86105c93660046121a3565b6112fd565b3480156105da57600080fd5b506102746105e93660046122d9565b611335565b3480156105fa57600080fd5b506102f8611465565b34801561060f57600080fd5b506102ca60095481565b34801561062557600080fd5b506102ca60075481565b34801561063b57600080fd5b5061024a61064a366004612129565b6001600160a01b03918216600090815260056020908152604080832093909416825291909152205460ff1690565b34801561068457600080fd5b506102f86106933660046120e0565b6115c6565b3480156106a457600080fd5b506102f86106b33660046122d9565b611661565b60006001600160e01b031982166380ac58cd60e01b14806106e957506001600160e01b03198216635b5e139f60e01b145b8061070457506301ffc9a760e01b6001600160e01b03198316145b92915050565b60606000805461071990612557565b80601f016020809104026020016040519081016040528092919081815260200182805461074590612557565b80156107925780601f1061076757610100808354040283529160200191610792565b820191906000526020600020905b81548152906001019060200180831161077557829003601f168201915b5050505050905090565b60006107a782611690565b61080d5760405162461bcd60e51b815260206004820152602c60248201527f4552433732313a20617070726f76656420717565727920666f72206e6f6e657860448201526b34b9ba32b73a103a37b5b2b760a11b60648201526084015b60405180910390fd5b506000908152600460205260409020546001600160a01b031690565b600061083482610ca8565b9050806001600160a01b0316836001600160a01b031614156108a25760405162461bcd60e51b815260206004820152602160248201527f4552433732313a20617070726f76616c20746f2063757272656e74206f776e656044820152603960f91b6064820152608401610804565b336001600160a01b03821614806108be57506108be813361064a565b6109305760405162461bcd60e51b815260206004820152603860248201527f4552433732313a20617070726f76652063616c6c6572206973206e6f74206f7760448201527f6e6572206e6f7220617070726f76656420666f7220616c6c00000000000000006064820152608401610804565b61093a83836116ad565b505050565b610949338261171b565b6109655760405162461bcd60e51b815260040161080490612478565b61093a838383611805565b6006546001600160a01b0316331461099a5760405162461bcd60e51b815260040161080490612443565b6006546001600160a01b031633146109e05760405162461bcd60e51b81526020600482015260096024820152683737ba1037bbb732b960b91b6044820152606401610804565b600954604051339180156108fc02916000818181858888f19350505050158015610a0e573d6000803e3d6000fd5b506000600955565b600080610a2b6006546001600160a01b031690565b6001600160a01b0316836001600160a01b03161415610a5557600954610a52908290611974565b90505b6000610a6084610e79565b90506000805b8251811015610ad05760106000848381518110610a8557610a85612603565b6020026020010151815260200190815260200160002054600f54610aa99190612514565b91508115610abe57610abb82856124c9565b93505b80610ac881612592565b915050610a66565b5091949350505050565b61093a838383604051806020016040528060008152506112fd565b600e6020528160005260406000208181548110610b1157600080fd5b90600052602060002001600091509150505481565b6006546001600160a01b03163314610b505760405162461bcd60e51b815260040161080490612443565b600d55565b6006546001600160a01b03163314610b7f5760405162461bcd60e51b815260040161080490612443565b600b55565b6006546001600160a01b03163314610bae5760405162461bcd60e51b815260040161080490612443565b8051610bc190600a906020840190611fd1565b5050565b6006546001600160a01b03163314610bef5760405162461bcd60e51b815260040161080490612443565b8060095447610bfe9190612514565b1015610c725760405162461bcd60e51b815260206004820152603960248201527f4e6f20737475636b206d6f6e6579206f7220746865207769746864726177416d60448201527f6f756e7420796f752077616e7420697320746f6f206d756368000000000000006064820152608401610804565b6040516001600160a01b0383169082156108fc029083906000818181858888f1935050505015801561093a573d6000803e3d6000fd5b6000818152600260205260408120546001600160a01b0316806107045760405162461bcd60e51b815260206004820152602960248201527f4552433732313a206f776e657220717565727920666f72206e6f6e657869737460448201526832b73a103a37b5b2b760b91b6064820152608401610804565b600a8054610d2c90612557565b80601f0160208091040260200160405190810160405280929190818152602001828054610d5890612557565b8015610da55780601f10610d7a57610100808354040283529160200191610da5565b820191906000526020600020905b815481529060010190602001808311610d8857829003601f168201915b505050505081565b60006001600160a01b038216610e185760405162461bcd60e51b815260206004820152602a60248201527f4552433732313a2062616c616e636520717565727920666f7220746865207a65604482015269726f206164647265737360b01b6064820152608401610804565b506001600160a01b031660009081526003602052604090205490565b6006546001600160a01b03163314610e5e5760405162461bcd60e51b815260040161080490612443565b610e686000611987565b565b60606001805461071990612557565b6001600160a01b0381166000908152600e6020908152604091829020805483518184028101840190945280845260609392830182828015610ed957602002820191906000526020600020905b815481526020019060010190808311610ec5575b50505050509050919050565b33610eef57600080fd5b600854610efc90826119d9565b341015610f375760405162461bcd60e51b81526020600482015260096024820152684c6f772046756e647360b81b6044820152606401610804565b6000610f4260075490565b9050612710610f5182846124c9565b1115610f8b5760405162461bcd60e51b815260206004820152600960248201526813585e081b1a5b5a5d60ba1b6044820152606401610804565b612710811115610fc65760405162461bcd60e51b81526004016108049060208082526004908201526314dbdb1960e21b604082015260600190565b60148211156110085760405162461bcd60e51b815260206004820152600e60248201526d22bc31b2b2b23990373ab6b132b960911b6044820152606401610804565b6000611032620f424061102c600b54620f42406110259190612514565b34906119d9565b906119e5565b90506000611054620f424061102c600b546008546119d990919063ffffffff16565b6009549091506110649083611974565b60095560005b84811015611137576007805490600061108283612592565b9190505550611092600754611690565b1561109e6007546119f1565b906110bc5760405162461bcd60e51b815260040161080491906123de565b506110c933600754611aef565b336000908152600e6020908152604080832060078054825460018101845592865284862090920191909155600f548154855260109093529220555461110e90836124e1565b600f600082825461111f91906124c9565b9091555081905061112f81612592565b91505061106a565b5050505050565b610bc1338383611c22565b6006546001600160a01b031633146111735760405162461bcd60e51b815260040161080490612443565b3361117d57600080fd5b600061118860075490565b905061271061119782846124c9565b11156111d15760405162461bcd60e51b815260206004820152600960248201526813585e081b1a5b5a5d60ba1b6044820152606401610804565b61271081111561120c5760405162461bcd60e51b81526004016108049060208082526004908201526314dbdb1960e21b604082015260600190565b601482111561124e5760405162461bcd60e51b815260206004820152600e60248201526d22bc31b2b2b23990373ab6b132b960911b6044820152606401610804565b60005b8281101561093a576007805490600061126983612592565b9190505550611279600754611690565b156112856007546119f1565b906112a35760405162461bcd60e51b815260040161080491906123de565b506112b033600754611aef565b336000908152600e6020908152604080832060078054825460018101845592865284862090920191909155600f5490548452601090925290912055806112f581612592565b915050611251565b611307338361171b565b6113235760405162461bcd60e51b815260040161080490612478565b61132f84848484611cf1565b50505050565b606061134082611690565b6113a45760405162461bcd60e51b815260206004820152602f60248201527f4552433732314d657461646174613a2055524920717565727920666f72206e6f60448201526e3732bc34b9ba32b73a103a37b5b2b760891b6064820152608401610804565b6000600a80546113b390612557565b80601f01602080910402602001604051908101604052809291908181526020018280546113df90612557565b801561142c5780601f106114015761010080835404028352916020019161142c565b820191906000526020600020905b81548152906001019060200180831161140f57829003601f168201915b505050505090508061143d846119f1565b60405160200161144e92919061231e565b604051602081830303815290604052915050919050565b600061147033610a16565b118061148657506006546001600160a01b031633145b6114c15760405162461bcd60e51b815260206004820152600c60248201526b2932bbb0b9321034b990181760a11b6044820152606401610804565b60006114cc33610a16565b604051909150339082156108fc029083906000818181858888f193505050501580156114fc573d6000803e3d6000fd5b506006546001600160a01b03163314156115165760006009555b600061152133610e79565b90506000805b825181101561132f576010600084838151811061154657611546612603565b6020026020010151815260200190815260200160002054600f5461156a9190612514565b915081156115b457816010600085848151811061158957611589612603565b6020026020010151815260200190815260200160002060008282546115ae91906124c9565b90915550505b806115be81612592565b915050611527565b6006546001600160a01b031633146115f05760405162461bcd60e51b815260040161080490612443565b6001600160a01b0381166116555760405162461bcd60e51b815260206004820152602660248201527f4f776e61626c653a206e6577206f776e657220697320746865207a65726f206160448201526564647265737360d01b6064820152608401610804565b61165e81611987565b50565b6006546001600160a01b0316331461168b5760405162461bcd60e51b815260040161080490612443565b600855565b6000908152600260205260409020546001600160a01b0316151590565b600081815260046020526040902080546001600160a01b0319166001600160a01b03841690811790915581906116e282610ca8565b6001600160a01b03167f8c5be1e5ebec7d5bd14f71427d1e84f3dd0314c0f7b2291e5b200ac8c7c3b92560405160405180910390a45050565b600061172682611690565b6117875760405162461bcd60e51b815260206004820152602c60248201527f4552433732313a206f70657261746f7220717565727920666f72206e6f6e657860448201526b34b9ba32b73a103a37b5b2b760a11b6064820152608401610804565b600061179283610ca8565b9050806001600160a01b0316846001600160a01b031614806117cd5750836001600160a01b03166117c28461079c565b6001600160a01b0316145b806117fd57506001600160a01b0380821660009081526005602090815260408083209388168352929052205460ff165b949350505050565b611810838383611d24565b60005b6001600160a01b0384166000908152600e6020526040902054811015611946576001600160a01b0384166000908152600e6020526040902080548391908390811061186057611860612603565b90600052602060002001541415611934576001600160a01b0384166000908152600e60205260409020805461189790600190612514565b815481106118a7576118a7612603565b9060005260206000200154600e6000866001600160a01b03166001600160a01b0316815260200190815260200160002082815481106118e8576118e8612603565b60009182526020808320909101929092556001600160a01b0386168152600e9091526040902080548061191d5761191d6125ed565b600190038181906000526020600020016000905590555b8061193e81612592565b915050611813565b506001600160a01b039091166000908152600e60209081526040822080546001810182559083529120015550565b600061198082846124c9565b9392505050565b600680546001600160a01b038381166001600160a01b0319831681179093556040519116919082907f8be0079c531659141344cd1fd0a4f28419497f9722a3daafe3b4186f6b6457e090600090a35050565b600061198082846124f5565b600061198082846124e1565b606081611a155750506040805180820190915260018152600360fc1b602082015290565b8160005b8115611a3f5780611a2981612592565b9150611a389050600a836124e1565b9150611a19565b60008167ffffffffffffffff811115611a5a57611a5a612619565b6040519080825280601f01601f191660200182016040528015611a84576020820181803683370190505b5090505b84156117fd57611a99600183612514565b9150611aa6600a866125ad565b611ab19060306124c9565b60f81b818381518110611ac657611ac6612603565b60200101906001600160f81b031916908160001a905350611ae8600a866124e1565b9450611a88565b6001600160a01b038216611b455760405162461bcd60e51b815260206004820181905260248201527f4552433732313a206d696e7420746f20746865207a65726f20616464726573736044820152606401610804565b611b4e81611690565b15611b9b5760405162461bcd60e51b815260206004820152601c60248201527f4552433732313a20746f6b656e20616c7265616479206d696e746564000000006044820152606401610804565b6001600160a01b0382166000908152600360205260408120805460019290611bc49084906124c9565b909155505060008181526002602052604080822080546001600160a01b0319166001600160a01b03861690811790915590518392907fddf252ad1be2c89b69c2b068fc378daa952ba7f163c4a11628f55a4df523b3ef908290a45050565b816001600160a01b0316836001600160a01b03161415611c845760405162461bcd60e51b815260206004820152601960248201527f4552433732313a20617070726f766520746f2063616c6c6572000000000000006044820152606401610804565b6001600160a01b03838116600081815260056020908152604080832094871680845294825291829020805460ff191686151590811790915591519182527f17307eab39ab6107e8899845ad3d59bd9653f200f220920489ca2b5937696c31910160405180910390a3505050565b611cfc848484611805565b611d0884848484611ec4565b61132f5760405162461bcd60e51b8152600401610804906123f1565b826001600160a01b0316611d3782610ca8565b6001600160a01b031614611d9f5760405162461bcd60e51b815260206004820152602960248201527f4552433732313a207472616e73666572206f6620746f6b656e2074686174206960448201526839903737ba1037bbb760b91b6064820152608401610804565b6001600160a01b038216611e015760405162461bcd60e51b8152602060048201526024808201527f4552433732313a207472616e7366657220746f20746865207a65726f206164646044820152637265737360e01b6064820152608401610804565b611e0c6000826116ad565b6001600160a01b0383166000908152600360205260408120805460019290611e35908490612514565b90915550506001600160a01b0382166000908152600360205260408120805460019290611e639084906124c9565b909155505060008181526002602052604080822080546001600160a01b0319166001600160a01b0386811691821790925591518493918716917fddf252ad1be2c89b69c2b068fc378daa952ba7f163c4a11628f55a4df523b3ef91a4505050565b60006001600160a01b0384163b15611fc657604051630a85bd0160e11b81526001600160a01b0385169063150b7a0290611f0890339089908890889060040161235d565b602060405180830381600087803b158015611f2257600080fd5b505af1925050508015611f52575060408051601f3d908101601f19168201909252611f4f91810190612273565b60015b611fac573d808015611f80576040519150601f19603f3d011682016040523d82523d6000602084013e611f85565b606091505b508051611fa45760405162461bcd60e51b8152600401610804906123f1565b805181602001fd5b6001600160e01b031916630a85bd0160e11b1490506117fd565b506001949350505050565b828054611fdd90612557565b90600052602060002090601f016020900481019282611fff5760008555612045565b82601f1061201857805160ff1916838001178555612045565b82800160010185558215612045579182015b8281111561204557825182559160200191906001019061202a565b50612051929150612055565b5090565b5b808211156120515760008155600101612056565b600067ffffffffffffffff8084111561208557612085612619565b604051601f8501601f19908116603f011681019082821181831017156120ad576120ad612619565b816040528093508581528686860111156120c657600080fd5b858560208301376000602087830101525050509392505050565b6000602082840312156120f257600080fd5b81356119808161262f565b6000806040838503121561211057600080fd5b823561211b8161262f565b946020939093013593505050565b6000806040838503121561213c57600080fd5b82356121478161262f565b915060208301356121578161262f565b809150509250929050565b60008060006060848603121561217757600080fd5b83356121828161262f565b925060208401356121928161262f565b929592945050506040919091013590565b600080600080608085870312156121b957600080fd5b84356121c48161262f565b935060208501356121d48161262f565b925060408501359150606085013567ffffffffffffffff8111156121f757600080fd5b8501601f8101871361220857600080fd5b6122178782356020840161206a565b91505092959194509250565b6000806040838503121561223657600080fd5b82356122418161262f565b91506020830135801515811461215757600080fd5b60006020828403121561226857600080fd5b813561198081612644565b60006020828403121561228557600080fd5b815161198081612644565b6000602082840312156122a257600080fd5b813567ffffffffffffffff8111156122b957600080fd5b8201601f810184136122ca57600080fd5b6117fd8482356020840161206a565b6000602082840312156122eb57600080fd5b5035919050565b6000815180845261230a81602086016020860161252b565b601f01601f19169290920160200192915050565b6000835161233081846020880161252b565b83519083019061234481836020880161252b565b64173539b7b760d91b9101908152600501949350505050565b6001600160a01b0385811682528416602082015260408101839052608060608201819052600090612390908301846122f2565b9695505050505050565b6020808252825182820181905260009190848201906040850190845b818110156123d2578351835292840192918401916001016123b6565b50909695505050505050565b60208152600061198060208301846122f2565b60208082526032908201527f4552433732313a207472616e7366657220746f206e6f6e20455243373231526560408201527131b2b4bb32b91034b6b83632b6b2b73a32b960711b606082015260800190565b6020808252818101527f4f776e61626c653a2063616c6c6572206973206e6f7420746865206f776e6572604082015260600190565b60208082526031908201527f4552433732313a207472616e736665722063616c6c6572206973206e6f74206f6040820152701ddb995c881b9bdc88185c1c1c9bdd9959607a1b606082015260800190565b600082198211156124dc576124dc6125c1565b500190565b6000826124f0576124f06125d7565b500490565b600081600019048311821515161561250f5761250f6125c1565b500290565b600082821015612526576125266125c1565b500390565b60005b8381101561254657818101518382015260200161252e565b8381111561132f5750506000910152565b600181811c9082168061256b57607f821691505b6020821081141561258c57634e487b7160e01b600052602260045260246000fd5b50919050565b60006000198214156125a6576125a66125c1565b5060010190565b6000826125bc576125bc6125d7565b500690565b634e487b7160e01b600052601160045260246000fd5b634e487b7160e01b600052601260045260246000fd5b634e487b7160e01b600052603160045260246000fd5b634e487b7160e01b600052603260045260246000fd5b634e487b7160e01b600052604160045260246000fd5b6001600160a01b038116811461165e57600080fd5b6001600160e01b03198116811461165e57600080fdfea264697066735822122017e12ef840c86df76f65a214dee5ab2a22fed3b862ea7b2dc054a58cd8d7cad264736f6c63430008070033",
  "linkReferences": {},
  "deployedLinkReferences": {}
}